:100000000C9434000C943E000C943E000C943E0082
:100010000C943E000C943E000C943E000C943E0068
:100020000C943E000C943E000C943E000C943E0058
:100030000C943E000C943E000C943E000C943E0048
:100040000C943E000C943E000C943E000C943E0038
:100050000C943E000C943E000C943E000C943E0028
:100060000C943E000C943E0011241FBECFEFD8E04C
:10007000DEBFCDBF0E94D0000C9406010C9400009E
:10008000569A5098589A54985C9A089580E48093B0
:100090007C0087E880937A00089590917C00987F97
:1000A00090937C0090917C008770892B80937C00DA
:1000B00080917A00806480937A0080917A0084FF36
:1000C000FCCF80917A00806180937A002091780043
:1000D00030917900C90108959C01823D910560F439
:1000E0008DEC90E0909389008093880088E893E1FC
:1000F0000197F1F784E10895825D90408C52914020
:1001000060F48AE991E0909389008093880088E800
:1001100093E10197F1F789E10895C9018E5F91405C
:10012000883C910560F48DEC92E090938900809377
:10013000880088E893E10197F1F78DE10895265C46
:1001400032402B53314060F48DEC93E09093890062
:100150008093880088E893E10197F1F781E20895A0
:10016000109289001092880080E008958093C40066
:100170009093C50084E48093C20088ED8093C10011
:1001800008958091C00087FFFCCF8091C60008953C
:10019000982F8091C00085FFFCCF9093C6000895F2
:1001A000CF93DF938091800083688093800080915B
:1001B00081008B6080938100219A0E9440000E9400
:1001C000460087E690E00E94B600C8E8D3E148996F
:1001D00014C04C9909C05E9A80E00E944D000E94B4
:1001E0006C000E94C8000EC0CE010197F1F710927A
:1001F0008900109288005E98EACF5E98109289007C
:1002000010928800CE010197F1F7E1CFF894FFCF6B
:00000001FF
